:100000008A11E02D00308A000408840A8207003437
:100010005034493443342034553441345234543408
:100020002034443465346D346F340D340A34003474
:0E0030000D340A34523458343A34203400343B
:100BC00083018A11572FF1007108013A0319E92DA9
:100BD000EA2DEC2DF62DF62D7008831203139900E3
:100BE000F12D0C1EF42DF52DF12DF62D0800F00041
:100BF0007008013A0319FD2DFE2D022E00300B2E38
:100C00000B2E022E831203138C1E072E082E022E8B
:100C1000092E1A080B2E0800F0007008013A03197B
:100C2000122E132E162E0030212E212E8316031382
:100C30009801831203139801831603139901700816
:100C4000212E0800F0007008013A0319282E292EE1
:100C50002C2E0030392E392E83120313981C312E7E
:100C6000322E352E18121816352E00308C1A0130FF
:100C7000392E0800F0007008013A0319402E412E69
:100C8000442E0030522E522E831603131812831254
:100C90000313981783160313981683120313181659
:100CA0000130522E08006C2E700884008313000857
:100CB0008312031399000130F3007308F007602ECC
:100CC0000C1E632E642E602E652E0130F102003062
:100CD000031CF203F2026C2E72087104031D712EC4
:100CE000722E542E732E0800F2007208013A031976
:100CF0007A2E7B2E912E9C2E9C2E912E7008840095
:100D00008A1102208A118312031399000130F10025
:100D10007108F0078B2E0C1E8E2E8F2E8B2E912E8F
:100D2000912E700884008A1102208A110038031D58
:100D30009A2E9B2E7E2E9C2E080083120313AC004D
:100D40002C08013A0319A52EA62EA92EFF30E92E54
:100D5000E92E8316031318151812B52E83120313E8
:100D60001817831603131817BC2E831203131813B6
:100D7000831603131813BC2E831203132408A80030
:100D80002508A9002608AA002708AB000230031096
:100D9000A80DA90DAA0DAB0DFF3E031DC72E2B08F4
:100DA000F3002A08F2002908F1002808F0000030BA
:100DB000F7000F30F6004230F5004030F4008A11A1
:100DC000EA268A117008FF3E83160313990000304B
:100DD000E92E08000030FC000030FB000030FA0073
:100DE0000030F90073087204710470040319F92EBD
:100DF000FA2E4D2FFD01FD0A0B2F0130F8000310D4
:100E0000F00DF10DF20DF30DF80BFF2E0130F8008F
:100E10007808FD070B2FF31F0E2F0F2FFD2E112F1C
:100E2000112F0130F8000310F90DFA0DFB0DFC0D28
:100E3000F80B132F73087702031D282F7208760210
:100E4000031D282F71087502031D282F70087402D6
:100E5000031C2B2F2C2F3C2F7008F4027108031C4D
:100E6000710FF5027208031C720FF6027308031C5F
:100E7000730FF70279143C2F01300310F30CF20CBE
:100E8000F10CF00CFF3E031D3D2F0130FD02031D50
:100E90004A2F4B2F112F4D2F4D2F7C08F3007B082D
:100EA000F2007A08F1007908F000562F080083124A
:100EB0000313B801831603139B01FF308500043030
:100EC000860001308A110C268A1183120313AD00AB
:100ED0002D08B9000030A3000030A2001130A1009D
:100EE0001030A0000030A7000030A6002530A5007B
:100EF0008030A40039088A119D268A11003A03190E
:100F0000822F832F852F832F852F83120313390878
:100F10008A113A268A11003A03198F2F902FFD2F3C
:100F2000013083120313AD002D08F00039088A1137
:100F300074268A119B2F8312031339088A112226E3
:100F40008A11003A0319A52FA62F9B2F8312031392
:100F500039088A11F7258A1183120313AD00380866
:100F60002E3E84002D088313800038082E3E840016
:100F70000008AD002D08F00039088A11E3258A1118
:100F80000E3083120313AD002D08F00039088A11CA
:100F900074268A11013083120313AD002D08B8079F
:100FA00038080A3A031DD52FD62F9B2F1130AD00DC
:100FB0002D08F00039088A1174268A112E30831208
:100FC0000313AD002D08F0000A30F1000030F200EC
:100FD00039088A1153268A110E3083120313AD008B
:100FE0002D08F00039088A1174268A118312031320
:100FF000B8019B2F9B2F9B2FFD2FFD2F8A110028BF
:04400E0029FFFCFF8B
:00000001FF
